{
  "contractName": "TeacherRegistration",
  "abi": [
    {
      "inputs": [
        {
          "internalType": "address",
          "name": "",
          "type": "address"
        }
      ],
      "name": "teachers",
      "outputs": [
        {
          "internalType": "string",
          "name": "teacherName",
          "type": "string"
        },
        {
          "internalType": "string",
          "name": "department",
          "type": "string"
        },
        {
          "internalType": "string",
          "name": "designation",
          "type": "string"
        },
        {
          "internalType": "string",
          "name": "domainOfInterest",
          "type": "string"
        }
      ],
      "stateMutability": "view",
      "type": "function"
    },
    {
      "inputs": [
        {
          "internalType": "string",
          "name": "_teacherName",
          "type": "string"
        },
        {
          "internalType": "string",
          "name": "_department",
          "type": "string"
        },
        {
          "internalType": "string",
          "name": "_designation",
          "type": "string"
        },
        {
          "internalType": "string",
          "name": "_domainOfInterest",
          "type": "string"
        }
      ],
      "name": "registerTeacher",
      "outputs": [],
      "stateMutability": "nonpayable",
      "type": "function"
    },
    {
      "inputs": [
        {
          "internalType": "address",
          "name": "_user",
          "type": "address"
        }
      ],
      "name": "getTeacherDetails",
      "outputs": [
        {
          "internalType": "string",
          "name": "",
          "type": "string"
        },
        {
          "internalType": "string",
          "name": "",
          "type": "string"
        },
        {
          "internalType": "string",
          "name": "",
          "type": "string"
        },
        {
          "internalType": "string",
          "name": "",
          "type": "string"
        }
      ],
      "stateMutability": "view",
      "type": "function"
    }
  ],
  "bytecode": "0x608060405234801561001057600080fd5b50610b38806100206000396000f3fe608060405234801561001057600080fd5b50600436106100415760003560e01c806375ebbf5414610046578063c46de92314610062578063f0a47f7814610095575b600080fd5b610060600480360381019061005b91906107fc565b6100c8565b005b61007c600480360381019061007791906107d3565b6101a4565b60405161008c94939291906108f8565b60405180910390f35b6100af60048036038101906100aa91906107d3565b610463565b6040516100bf94939291906108f8565b60405180910390f35b6040518060800160405280858152602001848152602001838152602001828152506000803373ffffffffffffffffffffffffffffffffffffffff1673ffffffffffffffffffffffffffffffffffffffff16815260200190815260200160002060008201518160000190805190602001906101439291906106b3565b5060208201518160010190805190602001906101609291906106b3565b50604082015181600201908051906020019061017d9291906106b3565b50606082015181600301908051906020019061019a9291906106b3565b5090505050505050565b60608060608060008060008773ffffffffffffffffffffffffffffffffffffffff1673ffffffffffffffffffffffffffffffffffffffff16815260200190815260200160002060405180608001604052908160008201805461020590610a4a565b80601f016020809104026020016040519081016040528092919081815260200182805461023190610a4a565b801561027e5780601f106102535761010080835404028352916020019161027e565b820191906000526020600020905b81548152906001019060200180831161026157829003601f168201915b5050505050815260200160018201805461029790610a4a565b80601f01602080910402602001604051908101604052809291908181526020018280546102c390610a4a565b80156103105780601f106102e557610100808354040283529160200191610310565b820191906000526020600020905b8154815290600101906020018083116102f357829003601f168201915b5050505050815260200160028201805461032990610a4a565b80601f016020809104026020016040519081016040528092919081815260200182805461035590610a4a565b80156103a25780601f10610377576101008083540402835291602001916103a2565b820191906000526020600020905b81548152906001019060200180831161038557829003601f168201915b505050505081526020016003820180546103bb90610a4a565b80601f01602080910402602001604051908101604052809291908181526020018280546103e790610a4a565b80156104345780601f1061040957610100808354040283529160200191610434565b820191906000526020600020905b81548152906001019060200180831161041757829003601f168201915b505050505081525050905080600001518160200151826040015183606001519450945094509450509193509193565b600060205280600052604060002060009150905080600001805461048690610a4a565b80601f01602080910402602001604051908101604052809291908181526020018280546104b290610a4a565b80156104ff5780601f106104d4576101008083540402835291602001916104ff565b820191906000526020600020905b8154815290600101906020018083116104e257829003601f168201915b50505050509080600101805461051490610a4a565b80601f016020809104026020016040519081016040528092919081815260200182805461054090610a4a565b801561058d5780601f106105625761010080835404028352916020019161058d565b820191906000526020600020905b81548152906001019060200180831161057057829003601f168201915b5050505050908060020180546105a290610a4a565b80601f01602080910402602001604051908101604052809291908181526020018280546105ce90610a4a565b801561061b5780601f106105f05761010080835404028352916020019161061b565b820191906000526020600020905b8154815290600101906020018083116105fe57829003601f168201915b50505050509080600301805461063090610a4a565b80601f016020809104026020016040519081016040528092919081815260200182805461065c90610a4a565b80156106a95780601f1061067e576101008083540402835291602001916106a9565b820191906000526020600020905b81548152906001019060200180831161068c57829003601f168201915b5050505050905084565b8280546106bf90610a4a565b90600052602060002090601f0160209004810192826106e15760008555610728565b82601f106106fa57805160ff1916838001178555610728565b82800160010185558215610728579182015b8281111561072757825182559160200191906001019061070c565b5b5090506107359190610739565b5090565b5b8082111561075257600081600090555060010161073a565b5090565b60006107696107648461098a565b610959565b90508281526020810184848401111561078157600080fd5b61078c848285610a08565b509392505050565b6000813590506107a381610aeb565b92915050565b600082601f8301126107ba57600080fd5b81356107ca848260208601610756565b91505092915050565b6000602082840312156107e557600080fd5b60006107f384828501610794565b91505092915050565b6000806000806080858703121561081257600080fd5b600085013567ffffffffffffffff81111561082c57600080fd5b610838878288016107a9565b945050602085013567ffffffffffffffff81111561085557600080fd5b610861878288016107a9565b935050604085013567ffffffffffffffff81111561087e57600080fd5b61088a878288016107a9565b925050606085013567ffffffffffffffff8111156108a757600080fd5b6108b3878288016107a9565b91505092959194509250565b60006108ca826109ba565b6108d481856109c5565b93506108e4818560208601610a17565b6108ed81610ada565b840191505092915050565b6000608082019050818103600083015261091281876108bf565b9050818103602083015261092681866108bf565b9050818103604083015261093a81856108bf565b9050818103606083015261094e81846108bf565b905095945050505050565b6000604051905081810181811067ffffffffffffffff821117156109805761097f610aab565b5b8060405250919050565b600067ffffffffffffffff8211156109a5576109a4610aab565b5b601f19601f8301169050602081019050919050565b600081519050919050565b600082825260208201905092915050565b60006109e1826109e8565b9050919050565b600073ffffffffffffffffffffffffffffffffffffffff82169050919050565b82818337600083830152505050565b60005b83811015610a35578082015181840152602081019050610a1a565b83811115610a44576000848401525b50505050565b60006002820490506001821680610a6257607f821691505b60208210811415610a7657610a75610a7c565b5b50919050565b7f4e487b7100000000000000000000000000000000000000000000000000000000600052602260045260246000fd5b7f4e487b7100000000000000000000000000000000000000000000000000000000600052604160045260246000fd5b6000601f19601f8301169050919050565b610af4816109d6565b8114610aff57600080fd5b5056fea264697066735822122060f7fe64fb858354fb6ecf8cff4d3629abb80e9cb9ad533370dd2c01bb28bb6464736f6c63430008000033",
  "immutableReferences": {},
  "source": "// SPDX-License-Identifier: MIT\npragma solidity ^0.8.0;\n\ncontract TeacherRegistration {\n    struct Teacher {\n        string teacherName;\n        string department;\n        string designation;\n        string domainOfInterest;\n    }\n\n    mapping(address => Teacher) public teachers;\n\n    function registerTeacher(\n        string memory _teacherName,\n        string memory _department,\n        string memory _designation,\n        string memory _domainOfInterest\n    ) public {\n        teachers[msg.sender] = Teacher(_teacherName, _department, _designation, _domainOfInterest);\n    }\n\n    function getTeacherDetails(\n        address _user\n    )\n        public\n        view\n        returns (string memory, string memory, string memory, string memory)\n    {\n        Teacher memory teacher = teachers[_user];\n        return (teacher.teacherName, teacher.department, teacher.designation, teacher.domainOfInterest);\n    }\n}\n",
  "sourcePath": "/Users/nanaiahk.s/Desktop/blockchain/contracts/TeacherRegistration.sol",
  "compiler": {
    "name": "solc",
    "version": "0.8.0+commit.c7dfd78e.Emscripten.clang"
  },
  "schemaVersion": "3.4.16",
  "updatedAt": "2024-05-17T05:08:59.132Z",
  "devdoc": {
    "kind": "dev",
    "methods": {},
    "version": 1
  },
  "userdoc": {
    "kind": "user",
    "methods": {},
    "version": 1
  }
}